:020000040800F2
:1000000038070020AD010008B5010008B70100085D
:10001000B9010008BB010008BD0100080000000094
:10002000000000000000000000000000812E000819
:10003000C1010008000000001D2D0008C9310008A2
:10004000C7010008C7010008C7010008C701000870
:10005000C7010008C7010008C7010008C701000860
:10006000C7010008C7010008C7010008C701000850
:10007000C7010008C7010008C7010008C701000840
:10008000C7010008C7010008C70100080000000000
:10009000000000000000000000000000C701000890
:1000A000C7010008C7010008C7010008C701000810
:1000B000E1320008ED320008F9320008C7010008FB
:1000C000C7010008C7010008C7010008C7010008F0
:1000D000C701000885380008C701000800000000BB
:1000E000C7010008C7010008C701000800000000A0
:1000F000000000000000000000000000C701000830
:1001000000000000C7010008C7010008C70100087F
:1001100000000000000000000000000000000000DF
:10012000C7010008C7010008C7010008C70100088F
:10013000C7010008000000000000000000000000EF
:10014000000000000000000000000000C7010008DF
:10015000C7010008C7010008C7010008C70100085F
:10016000C7010008C70100080000000000000000EF
:10017000000000000000000000000000000000007F
:1001800000000000C701000800000000000000009F
:10019000C7010008C7010008DFF80CD000F01EFB03
:1001A00000480047E5480008380700200648804717
:1001B00006480047FEE7FEE7FEE7FEE7FEE7FEE74C
:1001C000FEE7FEE7FEE7FEE78D3200089901000832
:1001D0002DE9F05F0546002092469B46884606467C
:1001E000814640241BE0284641464746224600F00F
:1001F0005EFA53465A46C01A914110D3114618462A
:10020000224600F045FA2D1A67EB01084F462246B8
:100210000120002100F03CFA17EB00094E41201E9E
:10022000A4F10104DFDC484631462A464346BDE8D6
:10023000F09F40EA01039B0703D009E008C9121FA1
:1002400008C0042AFAD203E011F8013B00F8013B90
:10025000521EF9D27047D2B201E000F8012B491EBC
:10026000FBD270470022F6E710B513460A46044653
:100270001946FFF7F0FF204610BD2DE9FE4F8046DE
:1002800081EA0300C00F0C46009021F0004123F0EA
:100290000045B8EB0200A94105D2404621469046F0
:1002A0001C460B46024623F00040104347D0270D62
:1002B000C7F30A00C3F30A510290401A0190402884
:1002C0006BDAC3F3130040F4801B0098924620B110
:1002D0000023D2EB030A63EB0B0B01985946C0F1E4
:1002E0004002504600F0D4F906460D4650465946A5
:1002F000019A00F0ECF910EB08006141002487EA54
:10030000115284EAE7731A4340D0009A62B3019A0B
:10031000012A4FEA075215DC001B61EB02014FF086
:10032000004202EA0752CDE90042001C41F580116B
:1003300032462B4600F0ECF903B0BDE8F08F4046A2
:100340002146F9E7001B61EB0201001C41F5801317
:1003500000185B412018A2F5001747EB030140EAA3
:10036000D570B6196D4111E06D084FEA360645EAC1
:10037000C0754FEA0752001B61EB0201001C41F5FA
:10038000801149084FEA30000019514132462B468E
:1003900003B0BDE8F04F00F0ACB900980122400076
:1003A0000023D0EB020263EBE073009821464FEA92
:1003B000E074B8EB000061EB0401E9E783F000436F
:1003C0005BE781F0004158E72DE9FE4F81EA030425
:1003D00004F0004421F0004100944FF0000B23F0A2
:1003E000004350EA01045ED052EA03045BD0C3F339
:1003F0000A54C1F30A552C44A4F2F3340194A0FB2F
:100400000254C1F3130141F48011C3F3130343F405
:10041000801301FB024400FB034E840A970A44EA5E
:10042000815447EA8357A4FB076802958D0A05FBB0
:1004300007854FEA932C04FB0C542705029D4FEAD5
:10044000065847EA1637B5EB08056EEB070C870E22
:10045000920E47EA811742EA8312A7FB0201B6EB2C
:100460000B0164EB00042B0D43EA0C335E1844EBE4
:100470001C50DA465146E7FB0201C5F313044FEA6C
:100480000B3343EA14534FEA0432019C43EA060358
:10049000A4F10C040294009CCDE900B400F038F9FA
:1004A00003B0BDE8F08F00200146F9E72DE9F04DDB
:1004B00081EA030404F0004B21F0004514464FF09C
:1004C000000A23F0004150EA050220D054EA01025C
:1004D0001DD0C5F30A570246C5F31303C1F3130039
:1004E000C1F30A5640F4801543F48013A7EB0608C5
:1004F000101BD64608F2FD3873EB050002D308F155
:10050000010801E092185B41B8F1000F03DA002006
:100510000146BDE8F08D00204FF480110646844668
:100520000EE0171B73EB050705D3121B63EB0503E6
:1005300006434CEA010C49084FEA300092185B412F
:1005400050EA0107EDD152EA030012D082EA04001A
:1005500083EA0501084305D0101BAB4106D20122F6
:10056000002306E000224FF0004302E06FF001029A
:1005700053101AEB06004CEB085110EB0A0041EB4C
:100580000B01BDE8F04D00F0B4B80EB5C10F80EA24
:10059000E0700844CA07002140F233438DE80E00A2
:1005A0000A460B4600F0B4F803B000BD0EB540F2A9
:1005B000334102910021CDE900110A460B4600F0BB
:1005C000A7F803B000BD70B5C1F30A5201F00045B1
:1005D0000024C1F3130140F2FF3341F480119A4229
:1005E00001DA002070BD40F233439A42A2F2334256
:1005F00003DC524200F05BF800E090402C43F1D065
:10060000404270BD30B5041E71F1000404DB4FF0B0
:100610000044404264EB0101141E73F1000405DB49
:100620001C464FF00043524263EB04038B4208BF69
:10063000824230BD30B5041E71F1000404DB4FF07E
:100640000044404264EB0101141E73F1000405DB19
:100650001C464FF00043524263EB0403994208BF2B
:10066000904230BD30B50B460146002020220124C7
:1006700009E021FA02F59D4205D303FA02F5491B70
:1006800004FA02F52844151EA2F10102F1DC30BD86
:10069000202A04DB203A00FA02F100207047914042
:1006A000C2F1200320FA03F3194390407047202A37
:1006B00004DB203A21FA02F00021704721FA02F30C
:1006C000D040C2F120029140084319467047202AC9
:1006D00006DBCB17203A41FA02F043EAE07306E06A
:1006E00041FA02F3D040C2F120029140084319467A
:1006F000704710B5141E73F1000408DA401C41F174
:10070000000192185B411A4301D120F0010010BD95
:100710002DE9F04D92469B4611B1B1FA81F202E00B
:10072000B0FA80F220329046FFF7B2FF04460F463F
:1007300040EA0A0041EA0B0153465A46084313D0E7
:10074000114653EA010019D0C8F140025046FFF7A4
:10075000AEFF05460E46504659464246FFF798FF03
:10076000084305D0012004E020463946BDE8F08D5D
:100770000020054346EAE0762C4337430A98630598
:10078000E40AA0EB08000022FD0A44EA47540A30BC
:1007900002D500200146E9E7010510196941DDE9AC
:1007A000084500196941BDE8F04DA2E7C1F30A52BE
:1007B000C1F3130140F2FF3341F480119A4202DA8F
:1007C00000200146704740F233439A42A2F233427E
:1007D00002DC5242FFF76BBFFFF75ABF064C074DD2
:1007E00006E0E06840F0010394E807009847103401
:1007F000AC42F6D3FFF7D4FCA04A0008C04A000878
:1008000010B52DED0C8B9FED4FCB9FED508B9FEDD9
:10081000519B9FED52AB9FED53DB9FED54BB554C6D
:1008200053EC1B2B94ED020B51EC100BFFF702FF66
:1008300094ED020B16D253EC182B51EC100BFFF772
:100840001CFD41EC100B51EC190B53EC102BFFF776
:100850002DFE53EC1A2BFFF7B7FD41EC100B53ECB8
:100860001C2B1EE053EC1B2B51EC100BFFF7CAFEA8
:100870001DD294ED020B53EC182B51EC100BFFF72B
:100880009DFD41EC100B51EC190B53EC102BFFF7B5
:100890000DFE53EC1A2BFFF797FD53EC1D2B41EC8B
:1008A000100B51EC100BFFF78CFDC4E9020194ED25
:1008B000040B53EC1B2B51EC100BFFF7BBFE94ED1C
:1008C000040B16D253EC182B51EC100BFFF7D5FC90
:1008D00041EC100B51EC190B53EC102BFFF7E6FD1C
:1008E00053EC1A2BFFF770FD41EC100B53EC1C2B53
:1008F0001EE053EC1B2B51EC100BFFF783FE1DD2B7
:1009000094ED040B53EC182B51EC100BFFF756FD34
:1009100041EC100B51EC190B53EC102BFFF7C6FDFB
:1009200053EC1A2BFFF750FD53EC1D2B41EC100B31
:1009300051EC100BFFF745FDC4E90401BDEC0C8B35
:1009400010BD0000000000000050794000000000D1
:1009500000002240000000000000F03F0000000006
:10096000007CB54000000000005079C0000000008D
:1009700000000000F000002070B559482DED0A8BF2
:1009800090ED0C0B9FED571B51EC100B53EC112B02
:10099000FFF71AFD41EC100B5148883090ED061B13
:1009A00051EC100B53EC112BFFF708FD41EC190B28
:1009B0004B487030C0789FED4DBB9FED4E8B4F4D37
:1009C0009FED4FAB464C383408B185ED048B94ED68
:1009D000000B53EC192B51EC100BFFF7F5FCC4E99D
:1009E000060194ED020B53EC192B51EC100BFFF7A1
:1009F000EBFC94ED081B53EC112BFFF73EFC41EC94
:100A0000100B53EC182B84ED080BFFF713FE94ED3D
:100A1000080B05D951EC100B81F0004141EC100B93
:100A200053EC1A2B51EC100BFFF704FE0DD294ED92
:100A3000080B53EC182B51EC100BFFF7FBFD02D207
:100A400084ED08AB01E084ED08BB95ED040B51EC9F
:100A5000190B53EC102BFFF7B1FC94ED041B53EC76
:100A6000112BFFF7B1FC41EC1C0B84ED0ACB94ED8C
:100A7000081B94ED060B53EC112B51EC100BFFF7F8
:100A8000FCFB53EC1C2BFFF7F8FB41EC100B53EC79
:100A9000182B84ED0C0BFFF7CDFD94ED0C0B05D955
:100AA00051EC100B81F0004141EC100B53EC1A2B70
:100AB00051EC100BFFF7BEFD0DD294ED0C0B53EC77
:100AC000182B51EC100BFFF7B5FD02D284ED0CABE7
:100AD00001E084ED0CBB85ED049BBDEC0A8B70BD81
:100AE00068000020FCA9F1D24D62503F00000000D8
:100AF00000002EC0000000000000000000000020E8
:100B00000000000000002E4030B5124800210122F4
:100B10008478383800F11803062C06D2DFE804F098
:100B2000050310130608C271017230BD027205E0A0
:100B30009FED090B83ED000B81710172C17130BD16
:100B40009FED070B01E09FED080B83ED000B827119
:100B500030BD000010010020000000000000000077
:100B6000000000000000444000000000000044C0FD
:100B700030B52DED0A8B83B09FED78CB4FF47A73AF
:100B80000122D021774800F08DFA01257648CDE981
:100B900000054FF4FA742B466B22D0210294714861
:100BA00000F02EFC7148CDE9000501233D22D02143
:100BB00002946C4800F026FB6C480123401CCDE9F0
:100BC00000053E22D0210294664800F01BFB6748D6
:100BD0000123801CCDE900053F22D0210294614809
:100BE00000F010FB61480123C01CCDE90005402244
:100BF000D02102945B4800F005FB5C480123001DF6
:100C0000CDE900054322D0210294564800F0FAFABB
:100C100056480123401DCDE900054422D02102940D
:100C2000504800F0EFFA5148801E418849BA0CB292
:100C30008188C08849BA40BA09B205B20846FFF7B0
:100C4000A4FC41EC180B2046FFF79FFC41EC100B75
:100C5000B0EE481AF0EE681A02F0B6FF9FED441BA2
:100C600051EC100B53EC112BFFF707FB9FED421BD0
:100C700053EC112BFFF7A8FB3B4C41EC1A0B284619
:100C800084ED06ABFFF781FC9FED3D1B53EC112B70
:100C9000FFF70CFC41EC1B0B3B4884ED08BB0568DF
:100CA0006068281AFFF782FC9FED381B53EC112B6C
:100CB000FFF7FCFB41EC190B53EC1C2B6560FFF7B5
:100CC000DCFA41EC100B51EC1C0B53EC102BFFF732
:100CD000EDFB41EC180B25480B38017821B184ED70
:100CE0000AAB0021017023E09FED2A0B53EC182B77
:100CF00051EC100BFFF762FB53EC1A2BFFF764FB70
:100D000041EC1A0B53EC192B51EC1B0BFFF75CFB5E
:100D100094ED0A1B53EC112BFFF7AFFA53EC182B91
:100D2000FFF752FB53EC1A2BFFF7A7FAC4E90A01AD
:100D30009FED1A0B53EC102B94ED0A0B51EC100B9A
:100D4000FFF73CFB9FED171B53EC112BFFF795FAB8
:100D5000C4E90C0103B0BDEC0A8B30BD00000000FB
:100D6000000008407001002000000020E300002087
:100D7000F1D4C853FB210940A7EDBA12DCA54C40C1
:100D8000000000000060604038000020000000000B
:100D900000408F40000000000000F03F0000000015
:100DA00000806640DF4F8D976E12D3BF90F83510EC
:100DB000022903D08021416501207047052180F878
:100DC00035100068016821F00101016000207047C2
:100DD00070B5044600F0DCF80546601C02D00448FB
:100DE0000078044400F0D4F8401BA042FAD370BD50
:100DF000540000202DE9F84FDFF860B100224FF0D9
:100E000001084FF0030A4FF00F090BF1040E00BF69
:100E10000B6808FA02F42340A3426ED14D68022DFC
:100E200001D0122D0ED1D50800EB850CDCF8205036
:100E30005607F70E09FA07F6B5430E69BE402E4372
:100E4000CCF82060066855000F790AFA05FC07F017
:100E5000030726EA0C06AF40374307604E68012EB1
:100E600005D0022E03D0112E01D0122E0ED186688D
:100E7000CF6826EA0C06AF40374387604668A64332
:100E80000C79C4F30014944034434460C6688C6801
:100E900026EA0C06AC403443C4604C68E40056D5E6
:100EA0002F4C256845F480452560246822F0030511
:100EB00004F4804400942B4C2E19D6F8084895076A
:100EC0002F0F09FA07F5AC43274DA84201D10025A1
:100ED00015E0264DA84201D1012510E0244DA8427D
:100EE00001D102250BE0234DA84201D1032506E0E4
:100EF000214DA84202D1042501E028E00725BD408C
:100F00002543C6F80858DBF800405D464E689C4310
:100F1000F60300D51C432C60DEF8004075464E6891
:100F20009C43B60300D51C432C600C4D08352C683F
:100F30004E689C43F60200D51C432C60074D0C35CF
:100F40002C684E689C43B60200D51C432C60521C92
:100F5000102AFFF45DAFBDE8F88F0000003C0140AF
:100F600044380240003001400000024000040240CA
:100F700000080240000C02400010024042694A4052
:100F8000426170470AB1816170470904FBE70000C4
:100F900001488068704700005400002070B50400CC
:100FA00004D094F83D00002510B106E0012070BD8A
:100FB00084F83C50204600F0C1FA242084F83D001B
:100FC0002068016821F00101016000F03DFC334917
:100FD0002268B0FBF1F15160314A6368934206D94F
:100FE0004FF4967359434FF47A73B1FBF3F12368CE
:100FF000491C1962616891420BD84900B0FBF1F2BB
:10100000C2F30B02042A01D2042019E0B0FBF1F074
:1010100016E0A3689BB301EBC10202EB0112B0FB27
:10102000F2F242F48042120530D04BB301EBC10220
:1010300002EB0111B0FBF1F040F4804040F40040BD
:101040002168C861D4E90701084321680860D4E930
:101050000310084321688860D4E90501084321682A
:10106000C8602068016841F001010160256420200A
:1010700084F83D00256384F83E50002070BD00E0F8
:1010800006E001EB4102B0FBF2F2CCE70120D7E72A
:1010900001EB4101B0FBF1F0D0E7000040420F004E
:1010A000A08601002DE9FF4F81B099468B4604468A
:1010B0004FF00108FFF76CFF054694F83D0020282B
:1010C0007BD1192301224D492046009501F0C9FA30
:1010D000002872D194F83C0001286ED0012084F8D9
:1010E0003C0020680168C90703D1016841F0010193
:1010F00001602068016821F400610160242084F807
:101100003D00002626643E48E062202720680168F2
:1011100041F4807101604B4600224FF001112046DE
:10112000009501F09EFA002858D121680BF0FE00CE
:101130000861FFF72DFF2168054648694969C0F33A
:10114000400094F83D20C1F380214FF0A00A12E046
:10115000B9F1000F04D0FFF71BFF411B494501D92E
:1011600084F83DA0216848694969C0F3400094F8BB
:101170003D20C1F38021084301D1A02AE8D184F8A1
:101180003D7020684169C943890717D4016841F45B
:1011900000710160206841698069192301221749A3
:1011A0002046009501F05DFAC0B984F83D7084F8DE
:1011B0003C60002005B0BDE8F08F1DE0016841F4FF
:1011C0000071016021686FF4806048611923012279
:1011D0000A492046009501F044FA08B10320E9E7E6
:1011E0004146039808F1010881428FD384F83D708D
:1011F00084F83C600120DDE70220DBE702001000FC
:101200000000FFFF2DE9FF4F83B09A46DDE911870B
:1012100093460446DDF84090FFF7BAFE054694F881
:101220003D00202874D119230122724920460095DF
:1012300001F017FA0028F5D194F83C00012867D096
:10124000012084F83C0020680168C90703D10168C7
:1012500041F0010101602068016821F40061016032
:10126000222084F83D00402084F83E0000262664B9
:10127000C4F82490A4F82A805F48E062608D20853D
:10128000CDE9007553465A462046049901F0F9F815
:1012900028B1206C84F83C60042843D076E0208D8F
:1012A000C8B1012820D00228206823D04169806974
:1012B0000090208D03286BD801282AD04F4902289E
:1012C0003B464FF0000200955BD08846204601F077
:1012D000C8F9E8BB40E02068416981690091016874
:1012E00041F40071016076E02068016821F48061BA
:1012F0000160F0E7016821F4806101602068016805
:1013000041F400610160206841698069009062E0F9
:101310006EE02A463946204601F018FA30B1206CBA
:10132000202833D0012007B0BDE8F08F206847E0C7
:101330002068016841F40071016020680169606AF9
:10134000421C62620170208D401E2085608D00E08D
:101350001CE0401E6085E9E72068016821F4806197
:10136000016020680169606A421C62620170208D20
:10137000401E2085608D401E60853B460022414610
:101380000095204601F06DF90028D1D00320CAE76E
:101390002A463946204601F0D9F90028BFD12068F5
:1013A0000169606A421C62620170208D401E2085C6
:1013B000608D401E608520684169C94349070AD491
:1013C0000169606A421C62620170208D401E2085A6
:1013D000608D401E6085208D00287FF46AAF20203C
:1013E00084F83D0084F83E6084F83C6000209AE771
:1013F000022098E7020010000000FFFF0400010037
:101400002DE9FF4F83B09A46DDE9118793460446E4
:10141000DDF84090FFF7BCFD064694F83D0020281B
:101420007DD11923012243492046009601F019F984
:1014300000287CD194F83C00012878D0012084F861
:101440003C0020680168C90703D1016841F001012F
:1014500001602068016821F400610160212084F8A6
:101460003D00402084F83E0000252564C4F8249007
:10147000A4F82A803048E062608D2085CDE90076AE
:1014800053465A462046049901F074F880B3206C04
:1014900084F83C50042848D008E0324639462046BB
:1014A00001F085F930B1206C042839D0032007B051
:1014B000BDE8F08F606A411C6162216800780861B4
:1014C000208D401E80B22085618D491E6185216876
:1014D0004A69D24352070BD468B1606A421C626207
:1014E00000780861208D401E2085608D401E60853B
:1014F000208D0028D1D132463946204601F08AF8A5
:101500000028D0D154F83D0B016841F4007101600E
:10151000202004F81E09E57765770020C7E706E07C
:101520002068016841F4007101600120BFE70220DA
:10153000BDE70000020010000000FFFF00B50068DA
:101540000E4987B0884217D14FF4407000901220A6
:10155000019000200290032003900420049069462B
:101560000748FFF747FC0748016841F40011016094
:10157000006800F40010059007B000BD0054004062
:101580000004024040380240024881680278114459
:1015900081607047540000200B4810B5016841F489
:1015A00000710160016841F480610160016841F4EB
:1015B00080710160032000F097F8002000F006F829
:1015C00000F024F8002010BD003C024070B50D4D25
:1015D00004464FF47A712878B1FBF0F00A490968A3
:1015E000B1FBF0F000F01BFB48B9102C07D2002231
:1015F0002146501E00F058F800206C6070BD01209C
:1016000070BD000054000020600000201F4808B595
:10161000016841F480410160006800F4804000905E
:101620001A48001F016841F080510160006800F015
:1016300080500090072000F057F8002211466FF00C
:101640000B0000F031F8002211466FF00A0000F0A4
:101650002BF8002211466FF0090000F025F8002257
:101660001146501F00F020F800221146101F00F014
:101670001BF800221146901E00F016F80022BDE86B
:1016800008401146501E00F00FB8000044380240D8
:1016900000F01F02012191404009800000F1E0208C
:1016A000C0F8001170470000F0B40E4B1B680C46E8
:1016B000C3F30223C3F10705042D00D90425191D26
:1016C000072901D2002300E0DB1E012606FA05F1FE
:1016D000491E214099409E40761E16403143F0BC81
:1016E00001F00CBB0CED00E0064900F007020868B1
:1016F0004FF6FF03184040EA0220034A10430860F7
:10170000704700000CED00E00000FA052DE9F047FD
:101710000E46050065D0DFF81481D8F80000F7B256
:1017200000F00F00B04207D288F80070D8F800002F
:1017300000F00F00B04254D128683D4C810712D50B
:10174000400703D5206840F4E05020602878000767
:1017500003D5206840F4604020602068A96820F02C
:10176000F000084320602878C0072DD03049686811
:101770000839012812D0022813D0032811D0096893
:10178000890700292DDA216821F003010143216036
:10179000FFF7FEFB814641F2883A0EE009688903B3
:1017A000EFE709688901ECE7FFF7F2FBA0EB09011D
:1017B000514502D90320BDE8F0872068696800F030
:1017C0000C00B0EB810FEFD1D8F80010404601F0CB
:1017D0000F01B14207D90770006800F00F00B04256
:1017E00001D00120E7E72878400705D52068E9689F
:1017F00020F4E050084320602878000706D52068D0
:10180000296920F4604040EAC100206000F03CF803
:101810002168084AC1F30311515CC84006490860B9
:101820000020FFF7D3FE0020C5E70000003C024087
:1018300008380240E44900086000002001480068C0
:1018400070470000600000200448054900680968EE
:10185000044AC1F38221515CC840704760000020F7
:1018600008380240F449000804480549006809683E
:10187000044AC1F34231515CC84070476000002007
:1018800008380240F4490008154810B5006810F007
:101890000C02144813D04110042A0FD0082A0ED18C
:1018A0000F4C241F2268236802F03F025B0207D519
:1018B0002068C0F38810A0FB010106E0084610BDB7
:1018C0002168C1F38811A1FB00010023FEF780FC11
:1018D0002168C1F30141491C4900B0FBF1F010BD82
:1018E000083802400024F4002DE9F84F050076D0B6
:1018F0002878DFF8F8B2BE4CC00749D0DBF80010FA
:101900005846C1F38101012908D00068C0F3810065
:1019100002280AD1201D0068400206D520688003F5
:1019200036D568680028E2D032E06868B0F5803FBC
:1019300010D0B0F5A02F206810D020F480302060A7
:10194000206820F4802020606868A0B1FFF720FBA9
:1019500006460CE0206840F48030F4E740F4802034
:101960002060F7E7FFF714FB801B642873D820681A
:101970008003F7D50CE0FFF70BFB064605E000BF40
:10198000FFF706FB801B6428F0D820688003F7D49B
:101990002878DFF8608280074FF000093ED5DBF839
:1019A0000010584611F00C0F09D00068C0F38100F8
:1019B00002280BD18D48001F0068400206D4206821
:1019C000800715D5E868012809D111E0E868B8B1A9
:1019D0000120C8F80000FFF7DBFA064605E002E147
:1019E000FFF7D6FA801B0228C0D820688007F7D5F9
:1019F0002068296920F0F80040EAC10020600DE06D
:101A0000C8F80090FFF7C4FA064604E0FFF7C0FAF2
:101A1000801B02281FD820688007F7D42878000789
:101A200022D5724E744869696C3671B1012101602A
:101A3000FFF7AEFA074604E0FFF7AAFAC01B022838
:101A400009D830688007F7D50EE0C0F80090FFF79E
:101A50009FFA074605E083E0FFF79AFAC01B0228C9
:101A60007ED830688007F7D42878400768D5DFF83B
:101A70007CA100270AF1380ADAF80000C0000BD474
:101A8000DAF8001041F08051CAF80010DAF80000CE
:101A9000012700F080500090584E3068C00510D4E7
:101AA000306840F480703060FFF772FA009005E013
:101AB000FFF76EFA0099401A022851D83068C00525
:101AC000F6D54A4EA868683601280FD00528306838
:101AD00010D020F001003060306820F00400306049
:101AE000A868B8B1FFF754FA00900FE0306840F0F2
:101AF0000100F4E740F004003060F7E7FFF748FA30
:101B00000099411A41F28830814264D830688007D8
:101B1000F4D50EE0FFF73CFA009007E0FFF738FA43
:101B20000099411A41F28830814254D830688007C8
:101B3000F4D42FB1DAF8001021F08051CAF8001067
:101B4000A869C0B3DBF80010C1F3810102294AD0B3
:101B50000228484607D0C8F86000FFF719FA00E0ED
:101B600039E005463AE04746C8F86000FFF710FA4A
:101B7000064604E0FFF70CFA801B02282BD82068E9
:101B80008001F7D4D5E907010843A96A1C4A49082E
:101B900002EB01416A6A41EA8211084395F82C1070
:101BA00040EA01611148001F016001203866FFF71B
:101BB000EFF9054605E014E0FFF7EAF9401B0228BB
:101BC00009D820688001F7D50BE000BFFFF7E0F9E6
:101BD000401B022802D90320BDE8F88F206880014D
:101BE000F4D40020F8E70120F6E7000008380240AE
:101BF0000038024000004742800E4742007000401B
:101C00000000FFFF4FF0E0210428086903D020F016
:101C100004000861704740F00400FAE7704710B50F
:101C2000401EB0F1807F01D3012010BD4FF0E024B1
:101C300060610F21601701F061F80020A0610720AA
:101C40002061002010BD10B5FFF7E8FF10BD704700
:101C5000704730B590F83820012A20D0012280F852
:101C60003820022380F8393003685C6824F070045F
:101C70005C6003685C680D682C435C6003689C686A
:101C800024F080049C6003689C6849680C439C6055
:101C900080F83920002180F83810084630BD022035
:101CA00030BD10B5040003D094F8390010B107E03E
:101CB000012010BD002084F83800204600F00CF808
:101CC000022084F83900211D206801F01BFB01204F
:101CD00084F83900002010BD08B501681648B1F13C
:101CE000804F0BD0154A914210D1016841F002019A
:101CF0000160006800F00200009008BD016841F03A
:101D000001010160006800F00100F5E70C4A914212
:101D100007D1016841F004010160006800F004008F
:101D2000EAE7084A9142E8D1016841F00801016000
:101D3000006800F00800DFE740380240000400407F
:101D400000080040000C00400168CA6842F001022F
:101D5000CA600068016841F001010160002070471D
:101D60000168CA6822F00102CA600068016A41F293
:101D70001112114207D1016A9210114203D1016878
:101D800021F0010101600020704770B5044690F811
:101D90003800012817D0012584F83850022084F833
:101DA00039002068826822F0770222F47F42826044
:101DB0000868502837D00DDC202859D005DC88B3BE
:101DC000102841D151E0022070BD302853D0402866
:101DD0003AD13FE060282ED070280BD0B0F5805F5C
:101DE00003D0B0F5005F2FD110E02068816821F0AA
:101DF000070115E0CB68D1E90121206801F0CAFA9A
:101E00002168886840F0770088601DE0CB68D1E9E0
:101E10000121206801F0BEFA2068816841F4804108
:101E2000816011E01EE0CA684968206801F0C4FAC8
:101E30005021206806E0CA684968206801F0CDFAA0
:101E40006021206801F0B0FA84F83950002084F84D
:101E5000380070BDCA684968206801F0ADFA4021B9
:101E60002068EFE700212068ECE710212068E9E70F
:101E700020212068E6E730212068E3E7704770B54D
:101E80000446006801694FF00005C943890715D46D
:101E9000C168C943890711D4E91E01610120207678
:101EA000206880698007204602D0FFF7E7FF04E042
:101EB00000F098F8204600F096F825762068016931
:101EC000C943490717D4C168C943490713D46FF000
:101ED00004010161022020762068806910F4407FAF
:101EE000204602D0FFF7CAFF04E000F07BF820464E
:101EF00000F079F8257620680169C943090716D4EE
:101F0000C168C943090712D46FF0080101610420B8
:101F100020762068C0698007204602D0FFF7AEFF18
:101F200004E000F05FF8204600F05DF825762068B8
:101F30000169C943C90617D4C168C943C90613D486
:101F40006FF010010161082020762068C06910F44C
:101F5000407F204602D0FFF791FF04E000F042F8F6
:101F6000204600F040F8257620680169C943C9077A
:101F700008D1C168C943C90704D1891E016120463F
:101F800000F032F820680169C943090609D4C16824
:101F9000C943090605D46FF0800101612046FFF7AF
:101FA00056FE20680169C943490609D4C168C9437E
:101FB000490605D46FF040010161204600F09AF80F
:101FC00020680169C94389060BD4C168C9438906E1
:101FD00007D46FF0200101612046BDE87040FFF793
:101FE00037BE70BD704770472DE9F047394A3A490E
:101FF0002DED028B0068904244D1487800283DD1F5
:10200000364D0027A5F108062868DFF8D490401C5B
:1020100028606968DFF8CC80491C696031689FEDF1
:10202000328B341F884212DD01214846FEF7A6FF9D
:102030002F6098ED020B53EC182B51EC100BFEF7B0
:10204000F9FA208801D8401C00E0401E2080686812
:102050007168884212DD02214846FEF78FFF6F60EB
:1020600098ED040B53EC182B51EC100BFEF7E2FA31
:10207000608801D8401C00E0401E6080BDEC028BEF
:10208000BDE8F087B0F1804F08D019498842F5D1FA
:10209000BDEC028BBDE8F04700F002BE0F481438DB
:1020A0000268521C02604268521C42608878002814
:1020B000E4D100F035FE00F0E5FE00F0E9FFFEF7A8
:1020C0005BFCFEF79DFBBDEC028BBDE8F04700F02A
:1020D00047BF000000040040D80000204C00002052
:1020E00000080240F0000020000000000000000096
:1020F000000800407047704770B5026804461068D9
:10210000D168536910F00F0F50D003F0010501F4AE
:10211000907635435DD0C20705D0CA0503D5E26B82
:1021200042F00102E263420705D5DA0703D0E26B11
:1021300042F00202E263820705D5DA0703D0E26BC0
:1021400042F00402E263020705D5DA0703D0E26B2E
:1021500042F00802E263E26B002A33D0800604D525
:10216000880602D5204601F08DF920684069E16BB0
:10217000C0F38010090700D428B3204601F074F999
:102180002068416949061AD5416921F04001416141
:10219000606BA0B11B490165606BFEF707FE00286C
:1021A00010D0606B016DBDE870400847830610D504
:1021B0008B060ED52046BDE8704001F063B920467D
:1021C000FFF799FF70BD2046FFF795FF0020E06301
:1021D00070BD030606D50B0604D52046BDE8704049
:1021E00001F0ECBA4006F3D54806F1D5D168204697
:1021F00021F04001D160202184F8391000F02CF941
:1022000070BD00005934000870B5040004D094F883
:102210003900002510B106E0012070BD84F8385067
:10222000204600F023F8242084F839002068C16893
:1022300021F40051C160204601F06AF9206801696B
:1022400021F4904101612068416921F02A01416136
:102250002068C16841F40051C160E563202084F822
:10226000390084F83A00002070BD000070B5154EAA
:1022700001680222012303240725134886B0B142D6
:102280000BD112490E6846F010060E60096801F085
:10229000100105914FF404410DE00D4EB1420FD1F4
:1022A0000A49091F0E6846F400360E60096801F4F9
:1022B000003105910C218DE83E006946FEF79AFD3C
:1022C00006B070BD001001400000024044380240DA
:1022D0000044004090F83A30202B1DD1D1B1CAB152
:1022E00090F83830012B17D081628285C285002199
:1022F000C163222280F83A2080F8381001684A69C8
:1023000042F001024A610068C16841F49071C16005
:1023100000207047012070470220704710B5006808
:102320000B49884213D00B49884210D102F06EFA53
:1023300000280CD101F086F848210748FDF792FFEC
:10234000BDE81040482204490448FFF7C3BF10BD50
:10235000004400400010014010010020B4020020A1
:102360002DE9F843044690F839001F4616460D46FD
:10237000202850D1A5B19EB194F8380001284AD048
:10238000012084F838004FF00008C4F83C80212078
:1023900084F83900FEF7FCFDA6848146E68426E039
:1023A0000120BDE8F883E08C401EE084A0684B4625
:1023B000B0F5805F4FF000024FF08001204600979B
:1023C00003D001F02CFAE8B90DE001F028FAC8B901
:1023D00028882168C0F308004860206908B16D1C96
:1023E00005E0AD1C03E0216815F8010B4860E08CA6
:1023F0000028D8D14B46002240212046009701F00A
:102400000EFA08B10320CCE7202084F8390084F8C4
:1024100038800020C5E70220C3E790F83930202B30
:1024200018D1A9B1A2B190F83830012B12D00162B5
:102430008284C2840021C163212280F8392080F87F
:1024400038100068C16841F08001C1600020704709
:102450000120704702207047704701684A69D243E3
:1024600052050CD46FF480624A610421016400219A
:1024700040F8301F20224273017301207047002072
:1024800070472DE9F84F0446006889460B9D0168A6
:102490009846174641F4806101602068016841F464
:1024A0008071016000954FF0011A002251462046CC
:1024B0000A9B00F0D6F8F0BB216809F0FE00086125
:1024C0000AF1010B2B46594620460A9A00F0FAF809
:1024D00018B1206C042812D03AE020684169806964
:1024E00000902A4620460A9900F061F950B1206C0C
:1024F00004282DD12068016841F400710160012099
:10250000BDE8F88FFEB2B8F1010F09D02168380A92
:1025100008612A4620460A9900F049F90028E6D1C8
:10252000206806612A4620460A9900F040F90028F2
:10253000DDD1206800E00BE0016841F480710160AA
:1025400000950022514620460A9B00F08AF808B107
:102550000320D5E7216809F0FF0040F00100086181
:102560002B46594620460A9A00F0ACF80028B0D114
:10257000C6E700002DE9F843044600680D46DDE992
:10258000089701689846164641F4807101604B46F1
:1025900000224FF001112046009700F062F8E8B9E0
:1025A000216805F0FE0008613B464A46184920466E
:1025B00000F088F828B1206C04280FD10120BDE874
:1025C000F88320684169806900903A464946204670
:1025D00000F0EDF820B1206C042813D00320EEE7C2
:1025E000F5B2B8F1010F09D02168300A08613A4606
:1025F0004946204600F0DBF80028ECD12068056150
:102600000020DCE72068016841F400710160D5E733
:102610000200010070B516460D4604461AE0204639
:10262000FFF71BFF08B1012070BD681C12D025B157
:10263000FEF7AEFC801BA8420CD954F8400F40F0C6
:10264000200044F8100900202060202161732073CD
:10265000032070BD20684069C0434007DFD40020DC
:1026600070BD2DE9F0471E4690460D460446C1F365
:102670000747DDF8209012E0701C10D02EB1FEF755
:1026800087FCA0EB0900B04209D9002044F8300FC4
:1026900020216173A07320730320BDE8F0872068B8
:1026A000012F0AD0806925EA00000004000C06D042
:1026B00000214145E0D00020EFE74069F3E7012128
:1026C000F7E700002DE9F0479A4691460D4604468B
:1026D00000264FF02008C1F307472AE02068406930
:1026E000C043400512D42068016841F400710160C4
:1026F00021686FF48060486104202064266384F8B8
:102700003D8084F83C600120BDE8F087B9F1FF3FCF
:102710000FD0B9F1000F05D0FEF73AFCA0EB0A018B
:10272000494506D944F8306F84F80D80267303209C
:10273000EAE72068012F07D0D0F8180025EA00004A
:102740000004000CE0D0C9E74069F7E72DE9F0414B
:10275000002590460E460446202721E04069C043EC
:10276000C0060CD421686FF0100048612564256311
:1027700084F83D7084F83C500120BDE8F0812EB112
:10278000FEF706FCA0EB0800B04209D954F8400F50
:1027900040F0200044F80409677025700320ECE73E
:1027A00020684169C9434906D8D40020E5E770B5DF
:1027B00016460D4604461AE02046FFF74EFE08B1C5
:1027C000012070BD681C12D025B1FEF7E1FB801B13
:1027D000A8420CD954F8400F40F0200044F81009EA
:1027E00000202060202161732073032070BD2068C9
:1027F0004069C0430006DFD4002070BD00B58FB033
:1028000038216846FDF72EFD382269461448FDF749
:1028100010FD13489FED130B382280ED000B9FED48
:10282000130B694680ED020B9FED120B80ED040B3C
:102830003830FDF7FEFC0A489FED100B3830084990
:1028400080ED000B9FED0F0B80ED020B9FED0F0B4A
:1028500080ED040B0120703108700FB000BD000046
:10286000680000200000000000003E40CDCCCCCC31
:10287000CCCCEC3F0000000000804940000000008C
:102880000000254052B81E85EB51B83F0000000003
:10289000000010402DE9F0410F490120002408708C
:1028A00026460E4DDFF838804FF47A77FEF760F950
:1028B0002868322807D32E6098ED0C0B09A053EC42
:1028C000102B00F0EDFF641CBC42EFDBBDE8F041D3
:1028D00008A000F0E5BF0000D80000203C00002068
:1028E00000000020616E676C65203A2025352E338C
:1028F000660D0A00436F6D706C65746520737461BA
:1029000062696C697A650D0A000000002DE9F041EA
:102910002E4886B00024016841F00401016001687E
:1029200001F004010591016841F0010101600168B5
:1029300001F001010591016841F0020101600068A8
:10294000234E00F00200059001220F213046FEF7D1
:1029500019FB204F002220213846FEF713FBDFF839
:102960007880012291024046FEF70CFB00223821BC
:102970004046FEF707FB4FF4005000901748CDE9A2
:10298000010469463046FEF735FA0F200125CDE9EE
:1029900000050320CDE9024069463046FEF72AFAD9
:1029A00020200090CDE90154694638460394FEF793
:1029B00021FA4FF487600090CDE901546946404602
:1029C0000394FEF717FA06B0BDE8F08130380240F4
:1029D00000080240000002400004024000002110F4
:1029E0000E4810B50C4901600D49416000214FF4BB
:1029F00080428160C0E9031241618161C16101626D
:102A0000FEF7CCFA002805D0BDE81040422105A011
:102A100000F03EBF10BD00000054004070010020D7
:102A2000801A06002E2E2F5372632F6932632E6395
:102A30000000000010B5174886B04FF080410160DB
:102A400040F2E7310024C0E901146321C0E9031416
:102A5000FFF727F918B141210FA000F019FF4FF43B
:102A60008050009069460B48FFF78FF918B1472155
:102A700009A000F00DFF049404A906480594FFF78F
:102A8000E8F8002803D04E2103A000F001FF06B0B3
:102A900010BD0000C40100202E2E2F5372632F742E
:102AA000696D2E630000000010B5174886B0154907
:102AB000016063210024C0E901141321C0E903145B
:102AC000FFF7EFF818B15F2110A000F0E1FE4FF41E
:102AD0008050009069460C48FFF757F918B16521FE
:102AE0000AA000F0D5FE049404A907480594FFF756
:102AF000B0F8002803D06C2104A000F0C9FE06B095
:102B000010BD000000040040000200202E2E2F53B4
:102B100072632F74696D2E630000000010B51848B1
:102B200086B01649016040F2CF710024C0E901145B
:102B300042F20F71C0E90314FFF7B3F818B17D2119
:102B400010A000F0A5FE4FF48050009069460C489C
:102B5000FFF71BF918B183210AA000F099FE049435
:102B600004A907480594FFF774F8002803D08A21C8
:102B700004A000F08DFE06B010BD0000000800406B
:102B80003C0200202E2E2F5372632F74696D2E632A
:102B90000000000010B5174886B01549016040F2EA
:102BA000E7310024C0E901144910C0E90314FFF71C
:102BB00078F818B19B2110A000F06AFE4FF4805005
:102BC000009069460B48FFF7E0F818B1A1210AA070
:102BD00000F05EFE049404A906480594FFF739F856
:102BE000002803D0A82104A000F052FE06B010BDBA
:102BF000000C0040780200202E2E2F5372632F7499
:102C0000696D2E63000000000D4810B50B4901608E
:102C10004FF416514160002181600C22C160C0E96F
:102C200004128161C161FFF7EFFA002805D0BDE809
:102C30001040432103A000F02BBE10BD0010014046
:102C4000B40200202E2E2F5372632F75736172749D
:102C50002E6300000D4810B50B4901604FF4E131BF
:102C60004160002181600C22C160C0E904128161D1
:102C7000C161FFF7C9FA002805D0BDE81040562110
:102C800003A000F005BE10BD00440040F402002087
:102C90002E2E2F5372632F75736172742E63000092
:102CA00010B518211148FDF7DDFA104A0F48803A97
:102CB0000021137913B11171402103E053791BB145
:102CC0005171802101740AE00174094991ED0C0BE6
:102CD000084980ED020B0548096870380167BDE8B6
:102CE0001040182201490448FFF797BB5801002003
:102CF0000000002040000020B40200200907090E57
:102D0000002806DA00F00F0000F1E02080F8141D22
:102D1000704700F1E02080F8001470477047000011
:102D200070B54548454D2DED0A8B90ED0C0B95ED9A
:102D30000C1B51EC100B53EC112BFDF73FFB41EC3E
:102D4000180B3D489FED3EAB38309FED3FCBC1782F
:102D50009FED3F9BA0F1700419B185ED02AB0021FE
:102D6000C17094ED000B53EC182B51EC100BFDF7D8
:102D70002BFBC4E9060194ED020B53EC182B51EC2C
:102D8000100BFDF721FB94ED081B53EC112BFDF705
:102D900074FA41EC100B53EC192B84ED080BFDF782
:102DA00049FC0DD294ED080B53EC1A2B51EC100B8F
:102DB000FDF740FC02D284ED089B01E084ED08CBD6
:102DC00095ED020B51EC180B53EC102BFDF7F6FAB6
:102DD00094ED041B53EC112BFDF7F6FA41EC1B0BA1
:102DE00084ED0ABB94ED081B94ED060B53EC112BFC
:102DF00051EC100BFDF741FA53EC1B2BFDF73DFA9C
:102E000041EC100B53EC192B84ED0C0BFDF712FC6D
:102E10000DD294ED0C0B53EC1A2B51EC100BFDF76B
:102E200009FC02D284ED089B01E084ED0CCB85ED1A
:102E3000028BBDEC0A8B70BDA000002000000020BA
:102E4000000000000000000000000000005079C0F9
:102E50000000000000B0784010B50748FEF780FF82
:102E6000FFF7CCFC054901208870BDE810404FF405
:102E7000FA70FDF7ADBF000000020020D80000206E
:102E8000704700002DE9F041304D00262DED048BF8
:102E9000A5F1700405F11807A8799FED2F8B94ED2B
:102EA0000C0B002853EC182B51EC100B9FED289BBA
:102EB0002CD0FDF7BFFB94ED0C0B05D951EC100B9A
:102EC00081F0004141EC100B53EC192B51EC100B2D
:102ED000FDF798FB01D284ED0C8B6E7097ED008BA3
:102EE00094ED0C9B53EC182B51EC190BFDF7C5F925
:102EF000C7E9020153EC182B51EC190BFDF75EFAF0
:102F0000C7E90401BDEC048BBDE8F081FDF792FB3D
:102F100094ED0C0B05D951EC100B81F0004141EC04
:102F2000100B53EC192B51EC100BFDF76BFB04D27B
:102F300084ED0C8B0120687000E06E7094ED0C0B3A
:102F400087ED040B87ED020BDCE70000D8000020C2
:102F500000000000000034400000000000000000FD
:102F600070B53C4C384E3E4D2DED048B9FED378BAC
:102F700094ED020B9FED389B53EC182B51EC100B8A
:102F8000FDF758FB01D2012209E094ED020B53EC4E
:102F9000182B51EC100BFDF735FB04D20022042155
:102FA0003046FDF7EFFF94ED040B53EC182B51EC7A
:102FB000100BFDF73FFB01D2002209E094ED040B5A
:102FC00053EC182B51EC100BFDF71CFB04D2012223
:102FD00008213046FDF7D6FF94ED020B53EC182B79
:102FE00051EC100BFDF726FB94ED020B05D951ECCB
:102FF000100B81F0004141EC100B53EC192B51ECFC
:10300000100BFDF7DEF9FDF7DEFA286094ED040BF6
:1030100053EC182B51EC100BFDF70CFB94ED040B4B
:1030200005D951EC100B81F0004141EC100B53EC31
:10303000192B51EC100BFDF7C4F9FDF7C4FA6860C9
:10304000BDEC048B70BD00000008024000000000D1
:1030500000000000F00000200000000000007940A7
:10306000440000200146094806290ED2DFE801F09D
:103070000D0D030606090122082104E0012220218A
:1030800001E001221021FDF77DBF704700040240DE
:1030900010B53B482DED068B00F118049FED34ABC5
:1030A0009FED359BC1799FED378B94ED060BC1B138
:1030B00053EC182B51EC100BFDF7A4FA94ED060B12
:1030C00002D253EC192B49E053EC182B51EC100BA6
:1030D000FDF7B0FA02D800BF84ED068BBDEC068B7D
:1030E00010BD007A9FED298BB8B153EC182B51EC31
:1030F000100BFDF79FFA94ED060B06D253EC192B3B
:1031000018E000BFC4E90601E8E753EC182B51ECC6
:10311000100BFDF777FAE1D8DEE79FED1E1B53ECAD
:10312000102B51EC110BFDF76DFA08D253EC1A2B52
:1031300094ED060B51EC100BFDF740F9E2E79FED23
:10314000171B94ED060B51EC110B53EC102BFDF7F4
:1031500071FA08D253EC1A2B94ED060B51EC100BBC
:10316000FDF78BF8CEE79FED0F0B84ED060BB5E76F
:103170002D431CEBE236FA3EFCA9F1D24D62603FD2
:10318000D80000209A9999999999B93F9A99999953
:103190009999B9BF623255302AA9033F623255303E
:1031A0002AA903BF000000000000000010B5044879
:1031B000FEF7CAFD0348002181700121C17010BDD6
:1031C00000020020D800002010B5FEF7DDF9BDE8B0
:1031D0001040FEF738BD000030B5264893B00024FB
:1031E000016841F080510160006800F0805011904A
:1031F0002148016841F4404101600068022500F463
:1032000040401190012003901020049000950695F5
:103210000820CDE907406420CDE9090504200B9082
:103220006846FEF761FB08B1AD210DE00F20CDE946
:103230000C054FF48050CDE90E4003210CA81094EA
:10324000FEF764FA18B1BB210CA000F021FBFEF7D9
:10325000F5FA4FF47A71B0FBF1F0FEF7E0FC0420D0
:10326000FEF7D0FC00221146501EFEF71DFA13B0E7
:1032700030BD000040380240007000402E2E2F5319
:1032800072632F6D61696E2E630000001048016843
:1032900041F4700101600F48016841F001010160D3
:1032A0000C4A00210832116002680B4B1A40026080
:1032B000031D0A4A1A60026822F48022026005484F
:1032C0000C300160024958068039086070470000E0
:1032D00088ED00E000380240FFFFF6FE10300024C9
:1032E0000148FEF7CCBD0000C40100200148FEF7F4
:1032F000C6BD0000000200200148FEF7C0BD00006E
:103300003C020020F0B502681B4B1C4C9F031C4D77
:103310001C4E984207D0B84205D0A04203D0A84224
:1033200001D0B04204D122F0700C4A6842EA0C028B
:10333000984210D0B8420ED0A0420CD0A8420AD079
:10334000B04208D0104CA04205D0104CA04202D090
:103350000F4CA04203D122F44074CA682243026099
:103360008A68C2620A688262984201D1096901636F
:1033700001214161F0BD0000000001400004004057
:1033800000080040000C00400040014000440140A3
:103390000048014010B5846842EA032224F47F44C7
:1033A0000A432243826010BD826822F070020A4301
:1033B00042F007018160704710B5036A046A24F087
:1033C00001040462846924F0F00444EA021423F046
:1033D0000A020A438461026210BD10B5036A23F039
:1033E000100303628369046A23F4704343EA0232E0
:1033F00024F0A00343EA01118261016210BD0000C4
:103400000F48A0F1A80190ED020B81ED000B90EDAB
:10341000040B81ED020B90ED060B81ED040B90ED9A
:10342000080B383181ED000B90ED0A0B81ED020B9A
:1034300090ED0C0B012081ED040B38314871704781
:103440001001002003488078062801D0FDF75CBBFE
:10345000FFF7D6BF1001002010B5806B0021C18599
:10346000C184FEF748FE10BD0168CA6822F490725C
:10347000CA6001684A6922F001024A61202180F88D
:103480003A10704710B590F83A10222901D0022066
:1034900010BD8168B1F5805F11D001690029016814
:1034A0001FD0496801F07F03816A4A1C82620B7059
:1034B000C18D491E0904090CC18518D026E0026996
:1034C000816A002A0268526805D0D2B20A80816AF5
:1034D000491C8162ECE7C2F308020A80816A891CF8
:1034E000F7E74A68816A4B1C83620A70E0E701686B
:1034F000CA6822F49072CA6001684A6922F0010227
:103500004A61202180F83A10FEF708FF002010BD24
:103510002DE9F04104460068016921F44052E16858
:10352000114301612168C86849F20C629043236924
:10353000A268E5691A4363692B431A430243CA60D0
:103540002168486920F44072A06910434861E1692C
:103550006425B1F5004F9748974A21684FF032082B
:103560003FD0914201D081427CD1FEF77DF900EB42
:10357000C00101EB001061688900B0FBF1F6FEF7B5
:1035800073F900EBC00101EB001061688900B0FB2A
:10359000F1F0B0FBF5F06FF01801484306EB800145
:1035A00008EB0110B0FBF5F000F0F006FEF75CF957
:1035B00000EBC00101EB001061688900B0FBF1F085
:1035C000B0FBF5F006EB0016FEF74EF900EBC0017C
:1035D00001EB001061688900B0FBF1F7FEF744F9D8
:1035E000D2E0914201D081423DD1FEF73DF900EB9E
:1035F000C00101EB001061684900B0FBF1F0B0FBC5
:10360000F5F00601FEF730F900EBC00101EB001008
:1036100061684900B0FBF1F7FEF726F900EBC00145
:1036200001EB001061684900B0FBF1F0B0FBF5F070
:103630006FF01801484307EB800108EBC100B0FBB5
:10364000F5F000F0F80006EB4006FEF70DF900EB90
:10365000C00101EB001061684900B0FBF1F7FEF713
:1036600003F93CE055E0FEF7EFF800EBC00101EB99
:10367000001061684900B0FBF1F0B0FBF5F0060105
:10368000FEF7E2F800EBC00101EB001061684900B1
:10369000B0FBF1F7FEF7D8F800EBC00101EB00102A
:1036A00061684900B0FBF1F0B0FBF5F06FF0180174
:1036B000484307EB800108EBC100B0FBF5F000F0D8
:1036C000F80006EB4006FEF7BFF800EBC00101EB87
:1036D000001061684900B0FBF1F7FEF7B5F800EBA8
:1036E000C00101EB001061684900B0FBF1F0B0FBD4
:1036F000F5F06FF01801484307EB800108EBC100BB
:10370000B0FBF5F000F00700216830448860BDE8A8
:10371000F081FEF799F800EBC00101EB0010616841
:103720008900B0FBF1F6FEF78FF800EBC00101EB6A
:10373000001061688900B0FBF1F0B0FBF5F06FF0AC
:103740001801484306EB800108EB0110B0FBF5F0CF
:1037500000F0F006FEF778F800EBC00101EB001076
:1037600061688900B0FBF1F0B0FBF5F006EB0016E4
:10377000FEF76AF800EBC00101EB001061688900F8
:10378000B0FBF1F7FEF760F800EBC00101EB0010B1
:1037900061688900B0FBF1F0B0FBF5F06FF0180143
:1037A000484307EB800108EB0110B0FBF5F000F097
:1037B0000F00A9E7001401400010014090F83910F3
:1037C000212901D0022070478168B1F5805F016A2C
:1037D0000BD04A1C0262026809785160C18C491EF4
:1037E0000904090CC1840ED017E009880268C1F3EE
:1037F0000801516001690029016A02D0491C016277
:10380000ECE7891CFBE70168CA6822F08002CA6005
:103810000068C16841F04001C160002070472DE997
:10382000F041984617460E460446069D1DE0681C6A
:103830001BD02DB1FDF7ACFBA0EB0800A84214D9BA
:103840002068C16821F4D071C1602068416921F00D
:1038500001014161202084F8390084F83A000020F9
:1038600084F838000320BDE8F0812068006836EA5B
:10387000000004D00020B842D9D00020F3E7012096
:10388000F9E700000148FEF737BC0000B402002051
:10389000012220210148FDF775FBFEE700000240F0
:1038A0000FB4054B10B503A9044A029800F0F6FBCB
:1038B00010BC5DF814FB0000F54700086400002010
:1038C00003B401984100009850EAC12018BF0420B9
:1038D0004A0D18BF40F0010040F2FF72B2EB515F99
:1038E00008BF40F00200012808BF052002B0704761
:1038F00070B59B482DED020B2DED068B079D25F035
:103900000044A04218DC9748844202DC0AD10698A1
:1039100040B19DED060BBDEC068B02B0BDE87040DA
:1039200000F0C6BA002DCCBF9FED8F0B9FED900B22
:10393000BDEC068B02B070BD8F48A04215DD8F48EC
:10394000A042D8BF4FF0FF3458DD9DED060B51EC7F
:10395000100BFFF7B5FF042808BF00F0BDFA9DED7E
:10396000060BBDEC068B02B070BD9DED060B51EC55
:10397000100B00F032FFCDE9060181489FED828BEC
:10398000A0423CDD8248A0421FDD00249FED82ABB7
:103990009DED060B53EC1A2B51EC100BFCF76DFC54
:1039A0009DED060B41EC190B53EC1A2B51EC100B4F
:1039B000FCF70AFD53EC182BFCF700FD53EC192B18
:1039C000FCF774FDCDE9060149E09DED060B0124ED
:1039D00053EC182B51EC100BFCF74FFC9DED060B34
:1039E00041EC190B53EC182B51EC100BFCF7E6FCD7
:1039F00053EC192BFCF75AFDCDE906012FE068487E
:103A0000A0421FDD02249FED689B9DED060B53EC49
:103A1000192B51EC100BFCF7D7FC53EC182BFCF7CF
:103A20002CFC9DED060B41EC180B53EC192B51ECC3
:103A3000100BFCF7C3FC53EC182BFCF737FDCDE95A
:103A400006010CE09DED060B032453EC102B9FEDBB
:103A5000580B51EC100BFCF729FDCDE906019DED4B
:103A6000060B53EC102B51EC100BFCF7ADFC41ECAA
:103A7000180B53EC182BFCF7A7FC41EC190B4E4824
:103A80000621B0EE490AF0EE690A784400F094F994
:103A900053EC182B51EC100BFCF796FC41EC180B77
:103AA0004648B0EE490AF0EE690A0521784400F074
:103AB00083F953EC192B51EC100BFCF785FC41EC0E
:103AC000100B51EC180B53EC102B002C0EDAFCF7FA
:103AD000D4FB9DED061B53EC112BFCF775FC9DED03
:103AE000061B53EC112BFCF76CFC35E0FCF7C5FB17
:103AF0009DED061B53EC112BFCF766FC41EC100B03
:103B00002F48784400EBC40090ED001B51EC100BE3
:103B100053EC112BFCF752FC9DED061B53EC112BC3
:103B2000FCF74CFC41EC100B2648784400EBC40039
:103B300090ED001B51EC100B53EC112BFCF741FCEA
:103B400041EC100B002DA2BFBDEC068B02B070BD86
:103B500051EC100B81F0004141EC100B01E700002B
:103B6000000010440000F07F182D4454FB21F93F61
:103B7000182D4454FB21F9BF0000DC3F0000203E1B
:103B80000000F33F00000000000000000000F03FD4
:103B90000000E63F000000000000000000000040C0
:103BA0000080034000000000000000000000F83F1B
:103BB000000000000000F0BFDA0F0000900F0000CE
:103BC0001A0F0000D20E000070B56B4E2DED040BE5
:103BD0002DED028B82B0DDF81CC0DDE905235C42CF
:103BE0002CF000411C4341EAD474049D22F00040B3
:103BF000B44205D86C422C4340EAD474B4420BD989
:103C00009DED061B9DED040B02B0BDEC028B04B0D4
:103C1000BDE8704000F056B9ACF14054A4F17F64A7
:103C20001C430BD0022404EAAC7444EAD27405436A
:103C30009FED538B9FED542B07D015E09DED040BAA
:103C400051EC100B00F0C1FD42E0002C11BF012C23
:103C50009DED040B02B0BDEC028B04BF04B070BD3F
:103C6000022C38D0032C3BD00B439FED491B9FED1A
:103C70004A0B0AD0B14218D1B04209D121F080419B
:103C800020F08040079105900FE0002A15DA10E03F
:103C9000434B7B44002C08BF93ED000B0DD0012C4F
:103CA00010D0022C17D0032C1AD0B0421DD1002AFC
:103CB00003DAB0EE410AF0EE610A02B0BDEC028B0D
:103CC00004B070BD93ED000B51EC100B81F000417E
:103CD00041EC100BF1E7B0EE480AF0EE680AECE7B1
:103CE000B0EE420AF0EE620AE7E7401A00153C28FF
:103CF000C8BF8DED000B19DCBCF1000FBEBF10F189
:103D00003C0F9FED290B8DED000B0FDB9DED060B9E
:103D100053EC102B9DED040B51EC100BFCF7C6FB84
:103D200000F05BFD00F051FDCDE90001002C08BF63
:103D30009DED000BC1D0012C10D0022C9FED1C0B6F
:103D400053EC102B9DED000B51EC100B0DD0FCF73C
:103D500035FB53EC182BFCF731FBB9E7019880F0E9
:103D6000004001909DED000BA7E7FCF727FB53EC0B
:103D7000182BFCF726FBABE70000F07F00000000EB
:103D8000182D4454FB210940182D4454FB2109C02F
:103D9000182D4454FB21F9BF182D4454FB21F93F41
:103DA000020E000000000000000000000000000003
:103DB000075C143326A6A13C70B504462DED028B9A
:103DC0004D1E00EBC500B0EE408AF0EE608A90ED2B
:103DD000000B35F0060017D053EC182B51EC100BEC
:103DE000FCF7F2FA41EC100B6D1E04EBC50090EDF0
:103DF000001B51EC100B53EC112BFCF73EFA41EC7D
:103E0000100B35F00600E7D1022D36D0042D1CD062
:103E1000062D1CBFBDEC028B70BD53EC182B51EC72
:103E2000100BFCF7D1FA94ED0A1B53EC112BFCF7A5
:103E300024FA53EC182BFCF7C7FA94ED081B53EC4B
:103E4000112BFCF71AFA41EC100B53EC182B51EC28
:103E5000100BFCF7B9FA94ED061B53EC112BFCF791
:103E60000CFA53EC182BFCF7AFFA94ED040B53EC5F
:103E7000102BFCF702FA41EC100B53EC182B51EC11
:103E8000100BFCF7A1FA94ED021B53EC112BFCF77D
:103E9000F4F953EC182BFCF797FA94ED001B53EC54
:103EA000112BFCF7EAF9BDEC028B41EC100B70BD55
:103EB00010B553EC102B51EC100BFCF7DEF941EC74
:103EC000100B10BD10B553EC112B51EC100BFCF77F
:103ED000D4F941EC100B10BD9FED050B10B553EC60
:103EE000102B51EC100BFCF76FFA41EC100B10BDCE
:103EF000000000000000001002E008C8121F08C106
:103F0000002AFAD170477047002001E001C1121F5A
:103F1000002AFBD1704700002DE9FF5F82B000212D
:103F2000DDE90430020DDDF840B0034318D044F65B
:103F30001050A2F2FF3242431514119801281FD0ED
:103F4000A5EB0B00401C5FEA000A4FF000064E4F45
:103F5000DFF83891B046504615D5CAF1000413E099
:103F6000119801244AA3012801D16FEA0B0102989C
:103F7000119AC0E90031C0E9024206B0BDE8F09FE5
:103F8000CBF10000DFE704460021404A491842EB2C
:103F90000450CDE9001012E0E00707D032463B465E
:103FA00040464946FCF710FA8046894632463B4671
:103FB00010461946FCF708FA06460F466410002C16
:103FC000EAD1DDE90401DDE90023BAF1000F06DAE8
:103FD000FCF7FAF942464B46FCF7F6F905E0FCF728
:103FE00065FA42464B46FCF761FA04460E4600224B
:103FF000284BFCF71FFB03D84FF0FF30014607E0CA
:104000000022254B20463146FCF737F9FCF7CEFB62
:10401000102409E0002C0ADB0A220023FCF7D8F860
:10402000039B30321A55641E50EA0102F2D1641C1F
:10403000039AC4F111031444119A012A03D00122F6
:1040400008430DD10AE0084304D000204FF0110BC3
:10405000119072E7A3EB0B056D1E0DE05B4504DDCF
:104060004FF0000205F1010504E003DA4FF0000211
:10407000A5F10105002AECD002981199C0E902319E
:10408000C0E9004579E70000000014400000F03F5F
:10409000300000000000F0430000E03F2DE9FF4F3A
:1040A00095B09B468946064600250FE2252877D124
:1040B00000242746F84A0121059400E0044316F83D
:1040C000013F203B01FA03F01042F7D130782A2853
:1040D00011D06FF02F033078A0F13002092A16D8E2
:1040E000059A44F0020402EB820203EB4202104400
:1040F000761C0590EFE759F8042B0592002A03DAA5
:10410000504244F40054059044F00204761C307888
:104110002E2816D116F8010F44F004042A280DD0D9
:104120006FF02F023078A0F13003092B09D807EB8C
:10413000870302EB4303C718761CF3E759F8047BA7
:10414000761C30786C280FD006DC4C2817D06828F5
:104150000DD06A2814D104E0742810D07A280FD129
:104160000DE044F400140AE044F4801401E044F447
:1041700040147278824202D104F58014761C761CB9
:10418000307866280BD013DC582877D009DC00285B
:1041900075D04528F6D04628F4D047281AD19DE19D
:1041A00018E0632835D0642879D0652812D195E1CC
:1041B000702873D008DC6728F1D069286FD06E288A
:1041C0000DD06F2806D1B5E073282CD0752875D096
:1041D000782874D05A46179990476D1C75E1C4F33E
:1041E0000250022809D003280DD0D9F80010042865
:1041F0000DD00D6009F1040967E1D9F80010EA1744
:10420000C1E90052F6E7D9F800100D80F2E70D7011
:10421000F0E719F8041B8DF8001000208DF801005C
:10422000EA46012003E059F804AB4FF0FF30610784
:104230004FF0000102D40DE008F101018846B942B7
:104240000FDA8045F8DB1AF808100029F4D108E0ED
:1042500008F1010188468142FADB1AF808100029AA
:10426000F6D105985B46A0EB080721463846179A19
:1042700000F094FA284400EB080507E04DE029E13E
:104280000DE01AF8010B5A4617999047B8F101084A
:10429000F7D25B4621463846179A13E142E00A22DC
:1042A0000092C4F302524FF0000A022A08D059F8D3
:1042B00004CB032A4FEAEC710AD00DE029E02AE092
:1042C00009F1070121F00702F2E802C1914609E075
:1042D0000FFA8CFC4FEAEC71042A03D14FFA8CFCE4
:1042E0004FEAEC71002907DA0A460021DCF1000CE4
:1042F00061EB02012D2202E0220504D52B228DF86C
:104300000420012203E0E20701D02022F7E79046D3
:1043100059E00A2102E010220DE010214FF0000ABE
:1043200000910BE010224FF0000A44F0040408272B
:10433000009203E008224FF0000A0092C4F30252F8
:10434000022A05D059F804CB0021032A08D009E03D
:1043500009F1070121F00702F2E802C1914605E0E8
:104360001FFA8CFC042A01D10CF0FF0C4FF000085E
:10437000220728D5702806D0009B83F0100353EA4B
:104380000A0305D00EE040228DF80420012208E047
:104390005CEA010206D030228DF804208DF8050079
:1043A00002229046009B83F0080353EA0A030AD1D5
:1043B0005CEA010201D1620705D530228DF80420A4
:1043C0004FF001087F1E582804D034A003900EA897
:1043D00002900DE036A0F9E753466046009AFBF7DD
:1043E000F7FE84460398825C0298401E0290027099
:1043F0005CEA0100F0D1029806A9081A00F1200A2F
:10440000600702D524F4803400E00127574502DD1F
:10441000A7EB0A0000E0002000EB0A0100900598DD
:104420004144401A0590E00306D45B462146179AA2
:10443000059800F0B3F90544002706E001A85A46A4
:10444000C05D179990476D1C7F1C4745F6DBE00364
:104450000CD55B462146179A059800F09FF9054454
:1044600004E030205A46179990476D1C0099481E69
:1044700000900029F5DC08E0029802995A4600787D
:10448000491C0291179990476D1CBAF10001AAF1DD
:10449000010AF1DC65E10000092801003031323306
:1044A0003435363738396162636465660000000070
:1044B000303132333435363738394142434445465A
:1044C0000000000000F058F90544761C3078002800
:1044D0007FF4ECAD19B02846BDE8F08F620700D438
:1044E000062709F1070222F0070CFCE80223E14647
:1044F00003F000485FEA080C02D00FF2702C0DE0C8
:104500005FEA045C02D50FF2682C07E05FEAC47C26
:1045100002D00FF2602C01E0AFF2700C4FF0FF38C8
:1045200023F00043CDF850C065280CD006DC4528A8
:1045300009D046281DD047283DD13DE0662818D037
:1045400067287ED138E00021112F01DB112000E027
:10455000781CCDE9000106A90EA8FFF7DDFCDDE916
:104560000F010E9A03910021009207F1010A0491B4
:104570004DE04FF000400097CDE9011006A90EA8CC
:10458000FFF7CAFCDDE90F0203920E9B119900228E
:10459000DDF80CA00093049211B9791C00EB010A1C
:1045A000B7EB0A0004D4C0F1FF3007F1010A049010
:1045B000AAEB0700019044E0012F00DA0127002157
:1045C000112F01DD112000E03846CDE9000106A9D8
:1045D0000EA8FFF7A1FCDDE90F010E9A039100215F
:1045E00004910092BA4621070CD40399514500DA90
:1045F0008A46BAF1010F05DD009AAAF10101515C6A
:10460000302908D0B84202DA10F1040F06DA01218D
:10461000CDE9011015E0AAF10101E9E7002805DC68
:10462000049901440491AAEB000102E0411C5145A8
:1046300000DD8A460499401A401C01904FF000406A
:104640000290200704D40198504501DBCDF8048086
:1046500000208DF84F0002980DF14F07B0F1004F88
:1046600025D02B200E9002984FF0020800280CDA7B
:10467000404202902D200E9007E00A210298FBF79D
:10468000F1FF3031029007F8011DB8F10001A8F1E7
:104690000108F2DC02980028EFD1791E0E9808700C
:1046A000307800F0200040F0450007F8020D12A815
:1046B000C01B00F107081498007800B1012000EB3E
:1046C0000A01019801EBE07105984144401A401E2F
:1046D0000590E00306D45B462146179A059800F042
:1046E0005DF805441498007818B15A461799904718
:1046F0006D1CE00324D55B462146179A059800F00F
:104700004DF805441CE00498002807DBDDE90301AF
:10471000884203DD0098405C179901E0179930202A
:104720005A469047049805F10105401C04900198F1
:10473000401E019004D12E205A46179990476D1CB7
:10474000BAF10001AAF1010ADDDC05E017F8010B5E
:104750005A46179990476D1CB8F10001A8F101085D
:10476000F4DC5B462146179A0598ABE62D00000065
:104770002B000000200000002DE9F0410446002538
:104780001E461746880404D405E039462020B04769
:104790006D1C641EF9D52846BDE8F0812DE9F04175
:1047A000044600251E469046C80301D5302700E088
:1047B0002027880404D505E041463846B0476D1CE3
:1047C000641EF9D52846BDE8F08110B541EC100B08
:1047D000FFF78EF851EC100B10BD82B0CDE900014F
:1047E00021F0004001909DED000B02B051EC100B48
:1047F0007047000013B54FF6FF7301226946024867
:10480000FDF7AEFD00981CBDF4020020084A002010
:104810000121535C491C1844C0B24829F9D304490A
:104820000978814201D001207047002070470000C4
:104830001001002010B5104C9FED100B53EC102B05
:1048400094ED0C0B51EC100BFBF7F4FE94ED0C0BFC
:1048500005D951EC100B81F0004141EC100B9FED9C
:10486000091B51EC100B53EC112BFBF7E3FE01D2AB
:10487000012010BD002010BD00000020000000003D
:1048800000000000000000000000394010B5104C8E
:104890009FED100B53EC102B94ED0C0B51EC100B07
:1048A000FBF7C8FE94ED0C0B05D951EC100B81F011
:1048B000004141EC100B9FED091B51EC100B53EC28
:1048C000112BFBF79FFE01D2012010BD002010BD6F
:1048D00000000020000000000000000000000000B8
:1048E00000000040FCF758FEFEF776FCFEF70EF8DD
:1048F000FEF7B0F9FEF788F9FEF79CF8FEF7D4F85A
:10490000FEF76EF8FEF70AF9FEF744F900221146A9
:104910001D20FCF7C9FE1D20FCF7BAFE0122002174
:104920001C20FCF7C1FE1C20FCF7B2FE0222002175
:104930002520FCF7B9FE2520FCF7AAFE0322002162
:104940001E20FCF7B1FE1E20FCF7A2FE1B481C49EE
:104950004FF47A73006808600122D0211948FCF7EF
:10496000A1FB1948FDF7F0F918A0FEF799FFFDF734
:1049700091FF0320FEF776FB482216491648FDF703
:10498000A9FC1648FDF7E0F91549012081F804005B
:10499000FEF762FA02E000BFFCF7EAF8FFF776FFE5
:1049A0000028F9D0FEF702FC02E000BFFCF7E0F8B7
:1049B000FFF740FF0028EBD1F8E7000038000020A7
:1049C0000400002070010020C401002053746172B3
:1049D000740D0A0010010020B40200203C020020E7
:1049E000D8000020000000000000000001020304C5
:1049F000060708090000000001020304000000008F
:104A00004FBB610567ACDD3F182D4454FB21E93FE6
:104A10009BF681D20B73EF3F182D4454FB21F93FD5
:104A2000E2652F227F2B7A3C075C143326A6813C5B
:104A3000BDCBF07A8807703C075C143326A6913C06
:104A4000C4EB98999999C9BF711623FEC671BCBF72
:104A50006D9A74AFF2B0B3BF9AFDDE522DDEADBFDA
:104A60002F6C6A2C44B4A2BF0D5555555555D53FF2
:104A7000FF8300922449C23F6E204CC5CD45B73F0D
:104A8000513DD0A0660DB13FEB0D76244B7BA93F85
:104A900011DA22E33AAD903F000000000000000070
:104AA000C04A00080000002068000000F83E00082E
:104AB000284B000868000020D0060000083F0008CE
:104AC00000000000000000000000000000000000E6
:104AD00000000000000000000000000000000000D6
:104AE00000000000000000000000000000000000C6
:104AF00000000000000000000000000000000000B6
:104B000000000000000000000000000000000000A5
:104B10000000000001000000100000000000000084
:084B20000024F4000000000075
:040000050800019955
:00000001FF
